{
  "contractName": "members",
  "abi": [
    {
      "constant": true,
      "inputs": [],
      "name": "leader",
      "outputs": [
        {
          "name": "",
          "type": "address"
        }
      ],
      "payable": false,
      "stateMutability": "view",
      "type": "function"
    },
    {
      "inputs": [],
      "payable": false,
      "stateMutability": "nonpayable",
      "type": "constructor"
    },
    {
      "constant": false,
      "inputs": [
        {
          "name": "proposed_member",
          "type": "address"
        }
      ],
      "name": "addMember",
      "outputs": [],
      "payable": false,
      "stateMutability": "nonpayable",
      "type": "function"
    },
    {
      "constant": false,
      "inputs": [
        {
          "name": "_vote",
          "type": "uint256"
        },
        {
          "name": "proposed_member",
          "type": "address"
        }
      ],
      "name": "voteYesOnMember",
      "outputs": [],
      "payable": false,
      "stateMutability": "nonpayable",
      "type": "function"
    },
    {
      "constant": false,
      "inputs": [
        {
          "name": "_member",
          "type": "address"
        }
      ],
      "name": "removeMember",
      "outputs": [],
      "payable": false,
      "stateMutability": "nonpayable",
      "type": "function"
    },
    {
      "constant": false,
      "inputs": [
        {
          "name": "_vote",
          "type": "uint256"
        },
        {
          "name": "_member",
          "type": "address"
        }
      ],
      "name": "removeMemberVote",
      "outputs": [],
      "payable": false,
      "stateMutability": "nonpayable",
      "type": "function"
    },
    {
      "constant": false,
      "inputs": [],
      "name": "proposeVote",
      "outputs": [],
      "payable": false,
      "stateMutability": "nonpayable",
      "type": "function"
    },
    {
      "constant": false,
      "inputs": [
        {
          "name": "_vote",
          "type": "uint256"
        }
      ],
      "name": "voteYesOnProposal",
      "outputs": [],
      "payable": false,
      "stateMutability": "nonpayable",
      "type": "function"
    }
  ],
  "bytecode": "0x608060405234801561001057600080fd5b5060016000803373ffffffffffffffffffffffffffffffffffffffff1673ffffffffffffffffffffffffffffffffffffffff16815260200190815260200160002060006101000a81548160ff02191690831515021790555033600a60006101000a81548173ffffffffffffffffffffffffffffffffffffffff021916908373ffffffffffffffffffffffffffffffffffffffff160217905550600160008154809291906001019190505550610bb2806100ca6000396000f3fe608060405260043610610083576000357c0100000000000000000000000000000000000000000000000000000000900463ffffffff1680630b1ca49a146100885780633dc0e7b8146100d957806340eedabb146100f05780639885312114610147578063ca6d56dc14610182578063d684fa40146101d3578063dc3040321461022e575b600080fd5b34801561009457600080fd5b506100d7600480360360208110156100ab57600080fd5b81019080803573ffffffffffffffffffffffffffffffffffffffff169060200190929190505050610289565b005b3480156100e557600080fd5b506100ee6103ba565b005b3480156100fc57600080fd5b50610105610435565b604051808273ffffffffffffffffffffffffffffffffffffffff1673ffffffffffffffffffffffffffffffffffffffff16815260200191505060405180910390f35b34801561015357600080fd5b506101806004803603602081101561016a57600080fd5b810190808035906020019092919050505061045b565b005b34801561018e57600080fd5b506101d1600480360360208110156101a557600080fd5b81019080803573ffffffffffffffffffffffffffffffffffffffff169060200190929190505050610584565b005b3480156101df57600080fd5b5061022c600480360360408110156101f657600080fd5b8101908080359060200190929190803573ffffffffffffffffffffffffffffffffffffffff1690602001909291905050506106b3565b005b34801561023a57600080fd5b506102876004803603604081101561025157600080fd5b8101908080359060200190929190803573ffffffffffffffffffffffffffffffffffffffff1690602001909291905050506108c2565b005b600a60009054906101000a900473ffffffffffffffffffffffffffffffffffffffff1673ffffffffffffffffffffffffffffffffffffffff163373ffffffffffffffffffffffffffffffffffffffff161415156102e557600080fd5b60016000808373ffffffffffffffffffffffffffffffffffffffff1673ffffffffffffffffffffffffffffffffffffffff16815260200190815260200160002060006101000a81548160ff0219169083151502179055156103b7576008600081548092919060010191905055506001600560008373ffffffffffffffffffffffffffffffffffffffff1673ffffffffffffffffffffffffffffffffffffffff16815260200190815260200160002060006101000a81548160ff0219169083151502179055506103b6600854826108c2565b5b50565b600a60009054906101000a900473ffffffffffffffffffffffffffffffffffffffff1673ffffffffffffffffffffffffffffffffffffffff163373ffffffffffffffffffffffffffffffffffffffff1614151561041657600080fd5b60096000815480929190600101919050555061043360095461045b565b565b600a60009054906101000a900473ffffffffffffffffffffffffffffffffffffffff1681565b6000806003600084815260200190815260200160002060003373ffffffffffffffffffffffffffffffffffffffff1673ffffffffffffffffffffffffffffffffffffffff16815260200190815260200160002060006101000a81548160ff0219169083151502179055156105805760016003600084815260200190815260200160002060003373ffffffffffffffffffffffffffffffffffffffff1673ffffffffffffffffffffffffffffffffffffffff16815260200190815260200160002060006101000a81548160ff0219169083151502179055508080600101915050600260015481151561054857fe5b0481111561057f57600160076000600954815260200190815260200160002060006101000a81548160ff0219169083151502179055505b5b5050565b600a60009054906101000a900473ffffffffffffffffffffffffffffffffffffffff1673ffffffffffffffffffffffffffffffffffffffff163373ffffffffffffffffffffffffffffffffffffffff161415156105e057600080fd5b600115156000808373ffffffffffffffffffffffffffffffffffffffff1673ffffffffffffffffffffffffffffffffffffffff16815260200190815260200160002060009054906101000a900460ff1615151415156106b0576008600081548092919060010191905055506001600460008373ffffffffffffffffffffffffffffffffffffffff1673ffffffffffffffffffffffffffffffffffffffff16815260200190815260200160002060006101000a81548160ff0219169083151502179055506106af600854826106b3565b5b50565b60006001600460008473ffffffffffffffffffffffffffffffffffffffff1673ffffffffffffffffffffffffffffffffffffffff16815260200190815260200160002060006101000a81548160ff0219169083151502179055801561077c575060006002600085815260200190815260200160002060003373ffffffffffffffffffffffffffffffffffffffff1673ffffffffffffffffffffffffffffffffffffffff16815260200190815260200160002060006101000a81548160ff02191690831515021790555b156108bd5760016002600085815260200190815260200160002060003373ffffffffffffffffffffffffffffffffffffffff1673ffffffffffffffffffffffffffffffffffffffff16815260200190815260200160002060006101000a81548160ff0219169083151502179055508080600101915050600260015481151561080057fe5b048111156108bc576000600460008473ffffffffffffffffffffffffffffffffffffffff1673ffffffffffffffffffffffffffffffffffffffff16815260200190815260200160002060006101000a81548160ff02191690831515021790555060016000808473ffffffffffffffffffffffffffffffffffffffff1673ffffffffffffffffffffffffffffffffffffffff16815260200190815260200160002060006101000a81548160ff021916908315150217905550600090505b5b505050565b600060016000808473ffffffffffffffffffffffffffffffffffffffff1673ffffffffffffffffffffffffffffffffffffffff16815260200190815260200160002060006101000a81548160ff0219169083151502179055801561097957506001600560008473ffffffffffffffffffffffffffffffffffffffff1673ffffffffffffffffffffffffffffffffffffffff16815260200190815260200160002060006101000a81548160ff02191690831515021790555b80156109e9575060006002600085815260200190815260200160002060003373ffffffffffffffffffffffffffffffffffffffff1673ffffffffffffffffffffffffffffffffffffffff16815260200190815260200160002060006101000a81548160ff02191690831515021790555b15610b815760016002600085815260200190815260200160002060003373ffffffffffffffffffffffffffffffffffffffff1673ffffffffffffffffffffffffffffffffffffffff16815260200190815260200160002060006101000a81548160ff02191690831515021790555080806001019150506004600360015402811515610a7057fe5b04811115610b80576000600560008473ffffffffffffffffffffffffffffffffffffffff1673ffffffffffffffffffffffffffffffffffffffff16815260200190815260200160002060006101000a81548160ff02191690831515021790555060008060008473ffffffffffffffffffffffffffffffffffffffff1673ffffffffffffffffffffffffffffffffffffffff16815260200190815260200160002060006101000a81548160ff0219169083151502179055506001600660008473ffffffffffffffffffffffffffffffffffffffff1673ffffffffffffffffffffffffffffffffffffffff16815260200190815260200160002060006101000a81548160ff0219169083151502179055505b5b50505056fea165627a7a72305820b2975b0289a50c3c9381031ef871a83a8fe524fa201b726957d5ab82af0c8fb70029",
  "source": "pragma solidity ^0.5.0;\r\n\r\n\r\n//escrow gets money from sender\r\n//buyer sends product\r\n//sender gets product\r\n//\r\n\r\n\r\n\r\n\r\n\r\ncontract members {\r\n  mapping(address => bool) memberList;\r\n  uint256 numOfMembers;\r\n  mapping (uint256 => mapping (address => bool) ) haveVotedMembers;\r\n  mapping (uint256 => mapping (address => bool) ) haveVoted;\r\n  mapping (address => bool) proposed_member_list;\r\n  mapping (address => bool) proposed_removals;\r\n  mapping (address => bool) blacklist;\r\n  mapping (uint256 => bool) proposalResult;\r\n  uint256 memberVote;\r\n  uint256 proposalVote;\r\n  address public leader;\r\n\r\n    constructor() public {\r\n       memberList[msg.sender] = true;\r\n       leader = msg.sender;\r\n       numOfMembers++;\r\n    }\r\n\r\n    modifier isMember {\r\n      require(msg.sender == leader);\r\n        _;\r\n    }\r\n\r\n    function addMember( address proposed_member)  public isMember   {\r\n\r\n        if(memberList[proposed_member] != true) {\r\n            memberVote++;\r\n            proposed_member_list[proposed_member] = true;\r\n            voteYesOnMember(memberVote, proposed_member );\r\n        }\r\n\r\n\r\n    }\r\n\r\n    function  voteYesOnMember  (uint256 _vote, address proposed_member) public {\r\n        uint256 numVotes;\r\n        if((proposed_member_list[proposed_member] = true) && (haveVotedMembers[_vote][msg.sender] = false)) {\r\n          haveVotedMembers[_vote][msg.sender] = true;\r\n          numVotes++;\r\n          if(numVotes > (numOfMembers /2) ) {\r\n              proposed_member_list[proposed_member] = false;\r\n              memberList[proposed_member] = true;\r\n              numVotes =0;\r\n          }\r\n        }\r\n\r\n    }\r\n    function removeMember (address _member) public isMember {\r\n        if(memberList[_member] = true) {\r\n            memberVote++;\r\n            proposed_removals[_member]= true;\r\n            removeMemberVote(memberVote, _member);\r\n        }\r\n    }\r\n    function removeMemberVote (uint256 _vote, address _member) public {\r\n        uint256 votesToRemove;\r\n        if((memberList[_member] = true) && (proposed_removals[_member] = true) && (haveVotedMembers[_vote][msg.sender] = false)) {\r\n            haveVotedMembers[_vote][msg.sender] = true;\r\n            votesToRemove++;\r\n            if(votesToRemove > ((numOfMembers*3)/4)) {\r\n                proposed_removals[_member] = false;\r\n                memberList[_member] = false;\r\n                blacklist[_member] = true;\r\n            }\r\n        }\r\n\r\n    }\r\n    function proposeVote() public isMember {\r\n        proposalVote++;\r\n        voteYesOnProposal(proposalVote);\r\n    }\r\n    function voteYesOnProposal (uint256 _vote) public {\r\n        uint256 propsalVoteCount;\r\n        if(haveVoted[_vote][msg.sender] = false) {\r\n          haveVoted[_vote][msg.sender] = true;\r\n          propsalVoteCount++;\r\n          if(propsalVoteCount > (numOfMembers/2)) {\r\n              proposalResult[proposalVote] = true;\r\n          }\r\n\r\n        }\r\n    }\r\n}\r\n",
  "sourcePath": "C:/Users/Colin/members/contracts/members.sol",
  "compiler": {
    "name": "solc",
    "version": "0.5.0+commit.1d4f565a.Emscripten.clang"
  },
  "schemaVersion": "3.0.1",
  "updatedAt": "2019-05-27T17:35:54.890Z",
  "devdoc": {
    "methods": {}
  },
  "userdoc": {
    "methods": {}
  }
}